:020000040800F2
:10000000080D0020E1030008E9030008650F00085F
:10001000ED030008EF030008F103000800000000F2
:10002000000000000000000000000000F3030008D2
:10003000F503000800000000F70300084D46000823
:10004000FB030008FB030008FB030008FB03000898
:10005000FB030008FB030008FB030008FB03000888
:10006000FB030008FB030008FB030008FB03000878
:10007000FB030008FB030008FB030008FB03000868
:10008000FB030008FB030008E70B0008FB03000864
:10009000FB030008FB030008FB030008FB03000848
:1000A0003547000879470008FB030008FB030008F8
:1000B000FB0300080000000000000000FB03000834
:1000C000FB030008FB030008FB030008000000001E
:1000D000FB030008FB03000849590008FB03000864
:1000E000CD0C0008FB030008FB0300080000000023
:1000F0000000000000000000000000000000000000
:10010000000000000000000000000000FB030008E9
:100110000000000000000000FB03000800000000D9
:1001200000000000000000000000000000000000CF
:1001300000000000000000000000000000000000BF
:10014000FB030008FB0300080000000000000000A3
:10015000000000000000000000000000000000009F
:10016000FB030008FB030008FB030008FB03000877
:10017000FB03000800000000000000000000000079
:1001800000000000FB030008DFF80CD000F0EEFCDC
:1001900000480047295C0008080D002001460020A7
:1001A00091F8582091F849108A4228BF01207047E1
:1001B0002DE9F04FB0F92E300446826EC3EBC33008
:1001C00093B08242C8BFA06605DCA3EBC33C944554
:1001D000A8BFC4F868C0B4F81EC1A76EE56E47FAA0
:1001E0000CF212B28542DCBFA3EBC330A842ACBF15
:1001F000E066E06E069040FA0CF0B4F92CC003B251
:10020000266ECCEBCC308642C8BF206604DCACEB5B
:10021000CC35B542A8BF2566656E854203DCACEBE4
:10022000CC30854200DC606694F81C01D4F8609004
:10023000B1F804C049FA00F8A8EB0C06B1F806C002
:10024000B1F808B0B1F900A0B1F90210656E0BFB6E
:1002500001F14FEA214ECDF830E045FA00F0B4F854
:1002600020E0A0EB0C0C0BFB0AFA1EFB08F1B4F823
:1002700022B0A9EB01011BFB06F8CDF83CB0B4F8A5
:1002800028B041441BFB1AF8CDF838B0B4F82490DC
:10029000414419FB02F8A1EB08010391B4F8268050
:1002A00018FB06F107EB010B94F83270B4F92A60E1
:1002B00043FA07F106FB01FAB4F90E100AFB01BA82
:1002C0001EFB00F0DDF83CB0281A1BFB0CF5DDF836
:1002D00030E0DDF838B028441BFB0EF5284419FB4C
:1002E00003F5451B18FB0CF0DDF818C0A4F87020CE
:1002F000604442FA07FC06FB0CFC01FB1C06A4F858
:10030000723094F92401002838D000BF12FB00F7A6
:1003100013FB00F0C0F10008B4F9040001F008FD7F
:1003200010FB27F110FB08F040F3CF3041F3CF3141
:10033000411A04F1340002F0BBFD208294F8F4105D
:1003400094F80E21491CC9B28A4208BF002104EB6F
:100350004102B2F874C0A4F80CC1A2F8740084F889
:10036000F410A188084400B2A0800399C4F868A0E2
:10037000C4E91815E66613B0BDE8F08F0029ACBFDC
:1003800001204FF0FF30C1E710B490F8F4C090F8AE
:100390000F110CF0FF0300EB430390F80E21B3F9AB
:1003A0007430D0F80841511A234408BFB0F90C1139
:1003B00007D061449142A8BF891A00EB4101B1F90D
:1003C000741090F82021591A41FA02F2C281C0F843
:1003D000081110BC70470021343002F060BD0000ED
:1003E0000648804706480047FEE7FEE7FEE7FEE7CF
:1003F000FEE7FEE7FEE7FEE7FEE7FEE7254700082B
:100400008901000830B400F10C046830029D2EC050
:100410004FF0000C00F824CC00F823CC614678386B
:1004200004E0A4680CF1010202F0FF0C002C18BFDC
:10043000BCF1050FF5D30CEB4C0200EB820291608E
:1004400080F848C00188642251434FF47A72B1FBAE
:10045000F2F180F8561030BC70472DE9F0470446A1
:100460000026D4E91A89C18080F8556080F8586068
:1004700080F8536000F10C0580F854600F46484640
:1004800005F03AFB0021404604F025F8608810FB97
:1004900007F001B2484605F08BFB002211464046AA
:1004A00003F09AFF2A88A88810FB07F001B24046A3
:1004B00003F092FF2A88688810FB07F001B24846D3
:1004C00005F038FB2888218848434FF47A71B0FB47
:1004D000F1F0401CA080A868A06084F85760BDE8D7
:1004E000F0872DE9F05F044680884FF0010A00256F
:1004F000D34600287ED0401EA08094F8580030B922
:1005000094F855000028206F06D041688847A088DD
:1005100000286FD000F0E3B8C16879B194F85710A3
:10052000491CC9B284F8571094F85620914205D955
:10053000C168884784F8535084F85750206F016988
:100540008847002808BF84F8535006D094F8530019
:100550007F283CBF401C84F85300206FC1680029ED
:1005600094F8531005D094F85620B1EB520F02D0F6
:10057000CDE77F29CBD1006803F0B5FE060048BF68
:1005800070420FFA80F8B4F90600002802DD002E50
:1005900002DD04E0002E02DB84F85350B7E7B4F824
:1005A0004A101FFA88F0884205D9206F41688847B1
:1005B00084F855B0ABE7B4F84C108842A7D94FF097
:1005C00000094F46E06E05F0B1FA206F8168884758
:1005D000A068002808BFA58072D0B0F9020040458D
:1005E00012DAA168886858B3B1F90290B1F90470C1
:1005F000A06000E025E094F85810491C84F85810D9
:10060000B0F902004045ECDBA068B0F90210B0F987
:100610000400A1EB0901C01B704390FBF1F007FA45
:1006200080F0E18811FB00F001B20022A06E03F01F
:10063000D3FEA4F804B004F15C00A06006203BE007
:10064000A580A068D8B394F8580010B101280BD049
:100650000FE0606F02F0B9FD84F854B0606F02F0F3
:10066000B8FD84F8535004E0606F02F0B0FD84F8E8
:100670005450A068E288818811FB02F1028809B217
:10068000A06E03F0A9FEA068E288418811FB02F188
:10069000028809B2E06E05F04DFAA1682288088848
:1006A00050434FF47A72B0FBF2F0401CA08088688F
:1006B000A06094F85800401C84F858000FE0FFE751
:1006C00094F8481094F85800491E884208BF4FF02B
:1006D000000A04D0072804BF84F85850A58050466B
:1006E000BDE8F09F70B504468088012520B1401E0A
:1006F0000004000CA08028D1A068002808BF0025B5
:1007000023D08188E28811FB02F1028809B2A06E31
:1007100003F062FEA068E288418811FB02F10288C2
:1007200009B2E06E05F006FAA168228808885043F5
:100730004FF47A72B0FBF2F0401CA0808868A06091
:1007400094F85800401C84F85800284670BD0146B3
:1007500000208968002908BF0120704710B50021DA
:10076000C46E81608180204603F0BDFD01462046B5
:10077000BDE81040002205F0DDB901EB410100EBBE
:1007800081008281704701EB410100EB8100C28151
:10079000704701EB410100EB81000282704701EBE1
:1007A000410100EB81008089704701EB410100EBC2
:1007B0008100B0F90E00704701EB410100EB8100B0
:1007C000B0F91000704790F84800704790F8540056
:1007D0007047000030B40023036643668366C36637
:1007E0008380C38180F8F63080F8F73080F8F830E5
:1007F00080F8F930C0F8FC30C0F80031C0F808319A
:1008000080F8223180F8233190F80EC1BCF1000F3E
:1008100015D000221CF001011CBFA0F87430012289
:1008200061450CDA00EB4204521CA4F8743000EB72
:100830004204891C521CA4F874306145F2DB80F834
:10084000F430A0F80C31002130BC343002F027BB6A
:1008500070B5044690F8160184F8F600012084F87B
:10086000040100256586B4F92E30BF4991FBF3F1F0
:1008700009B249B1628E01EBD17102F10102491056
:100880004FEA40006286F5D1208613FB00F042F665
:10089000BE0190FBF1F060852046FFF79BFF04F15D
:1008A000340002F0F2FA658270BD70472DE9F00362
:1008B000002690F80E213546B046B44637463446F9
:1008C0003346002A09D900BF00EB43095B1CB9F984
:1008D0007490DBB24E449A42F6D896FBF2F60023AF
:1008E000002A0BD900EB43095B1CB9F97490DBB209
:1008F000A9EB060909FB09559A42F3D895FBF2F3D7
:10090000B0F8105106FB06F26A43D51702EB5562A8
:10091000D2119342B8BF0127428B837872435A4366
:10092000C36992FBF3F2437892FBF3F20A8082816F
:1009300080F8F57090F80431012B18BF012420D005
:1009400090F8F820002A4CD0624217424FF0000283
:1009500011D190F8F7305B1CDBB280F8F73090F8DB
:1009600017C163453DD380F8F720C1780170BDE819
:10097000F0030020704780F8F720BDE8F00303F093
:10098000C5BC002AB8BF5242B0F81A31934223DDE9
:10099000B0F8703013FB03FCB0F8723013FB03C8DF
:1009A000B0F91430C2EBC23292FBF3F290F8193175
:1009B00053434FEAE37C03EB9C639B1103FB02FC74
:1009C0004FEAEC720CEB926290F81831921102FB34
:1009D00013C29045C8BF012480F8F940C0E93F8C9C
:1009E000AEE7BDE8F00303F091BCF0B490F823212A
:1009F0000024012A08BFB0F90C1090F8222100232E
:100A00000125012A38D0B0F90C2012FB01FCBCF101
:100A1000000F38DD002ABCBF524212B20029BCBF11
:100A2000494209B290F812C11CFB01FC4FEAEC7676
:100A30000CEB167C90F813614CF30F1C16FB01F1C4
:100A4000CE1701EB167190F8F56041F30F11012EEE
:100A500017D1B0F8147196B2BE4212D98A42A8BF1B
:100A600094450EDB90F8F610491CC9B280F8F610D8
:100A700090F81621914206D380F8F85001240370B3
:100A800001E080F8F6302046F0BC70470146B0F82F
:100A90007020B1F8721062F30F0061F31F407047CD
:100AA00090F81C21036E406E134163F30F01104157
:100AB00060F31F4108467047438C0B80C08C108048
:100AC00070474184C284704770B5044615460E468F
:100AD000343002F0D5F9308004F1340002F0CBF963
:100AE000288070BD70B504461546343002F0DDF93B
:100AF000294604F13400BDE8704002F0D4B97047D3
:100B000000680021343002F0CAB970B504461546B9
:100B10000E46343002F0B2F900FB06F104F1340065
:100B200002F0BDF9A58070BDD0F800017047D0F883
:100B3000FC00704780F80411704790F8F900704786
:100B4000006890F8F50070470068012180F82211D4
:100B500070470068012180F823117047A0F8141134
:100B6000704780F8241170475EEA0F00064C074D6D
:100B700006E0E06840F0010394E80700984710346D
:100B8000AC42F6D3FFF704FB306400085064000861
:100B900070B58C1810F8015B15F0070301D110F83F
:100BA000013B2A1106D110F8012B03E010F8016B6C
:100BB00001F8016B5B1EF9D12B0705D40023521EEF
:100BC0000DD401F8013BFAE710F8013BCB1A921C57
:100BD00003E013F8015B01F8015B521EF9D5A14255
:100BE000D8D3002070BD10B54FF0A0414020086060
:100BF00003F0E8FDBDE8104004F04EB910B4024621
:100C000008460FFA81FC1CFB0CF40B1413FB034188
:100C1000148864438C4224BF10BC704792F8B240E1
:100C2000C4EB1161C9B202EB41018A8810BC0CFB14
:100C300002F14FEAE17C01EB5C41C91361F30F0063
:100C400003FB02F1CA1701EB5241C91361F31F40C4
:100C50007047000010B590F830100E4C002204F0E0
:100C60008FF9E11301FA80F14FF4700292FAA2F2C7
:100C70004FF48010B2FA82F2D04004EB8000826818
:100C80006FF30F1211438160606840F001006060F3
:100C900010BD000000740040084490F83000704718
:100CA00000EB4100B0F932007047000002480168D3
:100CB00041F001010160704700740040084480F871
:100CC0003020704700EB41004286704705480168BC
:100CD00011F4005F08BF70474FF40051016004F049
:100CE00045BC000014040140002190B14378017814
:100CF00000221944002B09D900EB020C521C9CF86D
:100D000002C0D2B2614489B29342F5D801EB1120FE
:100D1000C1B208467047002141820175417580F8D3
:100D2000961080F8971080F8981080F8991080F845
:100D30009A1080F81B1180F81C1180F81D11704763
:100D4000DDF800C0002818BF80E80E1070470000D2
:100D500000EB400101EB001210B5084901EB420421
:100D600094F82410002918BF10BD054951F820003F
:100D700003F0FCFAE083208210BD0000740700201D
:100D80001407002010B5044600EB440000EB0412E9
:100D90001248002100EB4202114811605160D160FD
:100DA0001161D183C2F81610C2F81A10118450F8DC
:100DB000240002F074F80B48002150F8240002F0DF
:100DC0006EF8094850F8240003F0FEFA074850F87E
:100DD0002400BDE8104002F0F8B9000074070020BC
:100DE0001C07002020070020140700202C070020EB
:100DF00070470000024881680278114481607047A2
:100E000058070020074810B5016841F01001016043
:100E1000032000F073F8042000F006F800F024F836
:100E2000002010BD0020024070B50D4D04464FF467
:100E30007A712878B1FBF0F00A490968B1FBF0F04B
:100E400000F076F848B9102C07D200222146501E37
:100E500000F022F800206C6070BD012070BD000021
:100E600058070020640700200A4882B0816941F0D9
:100E700001018161816901F001010091C16941F0C5
:100E80008051C161C06900F080500090042002B020
:100E900000F034B800100240174B10B41B68C3F3C5
:100EA0000223C3F1070CBCF1040F88BF4FF0040C00
:100EB0001C1D072C34BF0023DB1E012404FA0CFC8C
:100EC000ACF1010C0CEA0101994004FA03F35B1E3A
:100ED0001A40114300284FEA0111A1BF00F1E020A0
:100EE00080F8001410BC704700F00F0000F1E02003
:100EF00080F8141D10BC70470CED00E0074900F0AD
:100F000007000A684FF6FF031A4042EA002040F04B
:100F1000FD7040F080600860704700000CED00E05C
:100F20000148006870470000640700207047000017
:100F3000411EB1F1807F24BF012070474FF0E020B7
:100F40004161054AF02182F8141D002181610721C9
:100F500001610020704700000FE000E010B5FFF7CE
:100F6000E5FF10BD03F01EFC174C0825D4F8200146
:100F7000C06910F0080F07D0134803F0A7FED4F89B
:100F80002001056204F030FBD4F82001C06910F0A4
:100F9000800F1CBF0C4803F042FFD4F82001C16948
:100FA00011F0200FE2D0808CC1B2074803F098FE08
:100FB0000088012804D0022808BF04F015FBD5E7FB
:100FC00004F00CFBD2E70000CC0500204FF0A0435A
:100FD00000229B6813F0010F18BF012201D01046B8
:100FE00070470968836823F4403319438160F6E74A
:100FF0008368002213F0010F18BF012201D01046B0
:101000007047D1E9003C43EA0C038968D0F80CC072
:101010002CF0380C2CF4804C41EA0C011943C160CF
:10102000EDE7000030B44B68D0F808C000221CF097
:10103000010F18BF012202D030BC10467047002BB0
:10104000DFF848C00B680ED08C682343D1E9034514
:101050002C4323434C692343C46804EA0C0C43EA41
:101060000C03C3600BE0CC682343D1E904452C4357
:101070002343C46804EA0C0C43EA0C03C3604968C8
:10108000036B23F00F0319430163D5E73CC0F0FF66
:1010900030B401F010010124536805684FF0000CD2
:1010A0008C40AC4308BF4FF0010C1BD07BB11468DF
:1010B0002343D2E9024222431A4303688A4040F69E
:1010C000FA7404FA01F123EA0101114309E003680B
:1010D000FA248C40A3431468D268224302FA01F137
:1010E0001943016030BC60467047000070B4654A27
:1010F000067A654B0025141F0168A3F1040C002E2D
:1011000070D099B1467A5EB3012E32D0022E18BF4C
:10111000012537D0847A4CB15C4A111F012C39D09B
:10112000022C41D0032C18BF012547D0416800296B
:1011300078D0427A002A4AD0012A54D0022A18BF15
:1011400001255BD0837A002B6CD051490A1F012BFB
:101150005ED0022B67D0032B18BF01256ED08DE027
:10116000166826EA010111600168226811432160B6
:10117000D0E7266826EA010121600168146821434E
:101180001160C7E726683143216001681468214374
:101190001160BFE70468166826EA04041460026858
:1011A0000C6822430A60C1E704680E6826EA04045A
:1011B0000C600168146821431160B7E704680E6889
:1011C00034430C600168146821431160AEE71A686B
:1011D00022EA010119604168DCF800201143CCF8D3
:1011E0000010AFE735E0DCF8002022EA0101CCF87E
:1011F000001041681A6811431960A3E7DCF8002069
:101200001143CCF8001041681A681143196099E73E
:101210004368D1F800C02CEA03030B6040681168F2
:10122000084310602AE04368D2F800C02CEA0303A8
:10123000136040680A68104308601FE04368D2F8F2
:1012400000C04CEA0303136040680A68104308605A
:1012500014E0266826EA010121600168146824EA86
:10126000010111604168DCF8002022EA0101CCF89C
:1012700000104068196821EA00001860284670BC18
:101280007047000004040140240401400C040140A4
:101290002C0401402DE9F0030A6892FAA2F3B3FA94
:1012A00083F3DA407ED001250F244FF0030C00BFFA
:1012B0000E6805FA03F2324075D04E68012E18BF51
:1012C000022E22D18E68D0F8088092FAA2F7B7FADF
:1012D00087F74FEA47070CFA07F728EA070792FA59
:1012E000A2F8B8FA88F84FEA480806FA08F647EA7A
:1012F00006068660CF680E68D0F8048028EA0608E3
:1013000006FB07F648EA060646600E69D0F80C8030
:1013100092FAA2F7B7FA87F74FEA47070CFA07F7EE
:1013200028EA070792FAA2F8B8FA88F84FEA4808BC
:1013300006FA08F647EA0606C6604E68022E36D15F
:1013400092FAA2F6B6FA86F6082E15D24E69076A08
:1013500092FAA2F8B8FA88F84FEA880804FA08F86E
:1013600027EA080892FAA2F7B7FA87F7BF00BE404B
:1013700048EA060606621AE04F69D0F82480160A89
:1013800096FAA6F9B9FA89F94FEA890904FA09F92E
:1013900096FAA6F6B6FA86F6B60028EA090807FA1B
:1013A00006F601E01DE017E048EA060646624E68D0
:1013B000076892FAA2F8B8FA88F84FEA48080CFAD7
:1013C00008F892FAA2F2B2FA82F2520027EA08076B
:1013D00006FA02F23A4302600A685B1CDA407FF4C4
:1013E00067AFBDE8F00300207047000010B5124C55
:1013F0000346606810F00C01104818BF042903D0A0
:10140000082908BF02F064FD186061680C4A01F009
:10141000F0010909515CC84058606168C1F30222BB
:1014200008498A5C20FA02F29A606268C2F3C2221A
:10143000895CC840D86010BD0010024000127A00DC
:10144000006400081064000800B501004FF00000BF
:1014500018BF00BD1F4B196B01F003021E49012A82
:101460001AD0022A2BD0032A24D0586810F00C007E
:1014700018BF042801D0082828D008465968174A00
:1014800001F0F0010909515CC8405968144AC1F3E0
:101490000221515CC84000BD586810F00C0018BF14
:1014A000042801D0082801D0084600BD5DF804EBEF
:1014B00002F00EBD1A6812F0020FF5D100BD196AD4
:1014C00011F0020F18BF4FF4004000BD02F000FD04
:1014D000D4E700000010024000127A000064000807
:1014E000106400080149086070470000640700208C
:1014F0000A7B8B681A434B6822F480621A430B689C
:1015000022F400621A43CB8922F480521A430B69F9
:1015100022F400521A4322F480434A6A134323F40C
:1015200000431A43A0F18043B3F596330FD14B69C2
:1015300022F470221A430B6A22F470021A438B6958
:1015400022F080721A43C96922F000720A43426491
:101550000020704770B402681A4B984218BFB0F16F
:10156000804F05D1D1F804C022F0700242EA0C028B
:10157000DFF854C0154C164D984218BFB0F1804F9B
:1015800004D060451CBFA042A84204D1CE6822F41A
:10159000407242EA060202608A68C2620A88826277
:1015A000984218BF604503D0A04218BFA84201D19D
:1015B00009690163416941F00101416170BC4FF06B
:1015C00000007047002C01400040014000440140F1
:1015D00000480140012908BF00211FD0042908BF8D
:1015E00001211BD0102908BF022117D0402908BFB4
:1015F000032113D0B1F5807F08BF04210ED0B1F5CF
:10160000806F08BF052109D0B1F5805F08BF0621B2
:1016100004D0B1F5803F0CBF07210821064A1830DD
:10162000525C10440268054B595C082303FA01F12F
:10163000114301607047000018640008216400082D
:101640002DE9F00301270023DFF8F4C2BD4CBE4DA5
:10165000BE4EB1F5805F00F0DB8008DC012910D0C0
:1016600010294FD0B1F5807F7DD000F065B9B1F57C
:10167000803F00F0FF80B1F5801F00F02D8100F069
:101680005BB9016A21F001010162076A4168D0F883
:101690001880D2F8009028F0730828F4803848EABF
:1016A0000908D2F8109027F0020747EA0907D2F894
:1016B000049027F0010747EA0907604518BFA042D8
:1016C00003D0A84218BFB04215D1546927F0080CC6
:1016D0004CEA840C94682CF0040C4CEA8407D2F891
:1016E00018C021F4807141EA0C01D2F81CC021F429
:1016F000007141EA4C014160C0F81880D168416333
:10170000076241E0016A21F010010162016A476845
:10171000D0F81880D2F8009028F4E64828F08078B5
:1017200048EA0928D2F8109021F0200141EA091175
:10173000D2F8049021F0100141EA0911604518BF68
:10174000A04203D0A84218BFB04217D1D2F814C0AB
:1017500021F0800141EA8C11D2F808C021F040014B
:1017600041EA8C1100E011E0946927F4806C4CEAA6
:10177000840CD4692CF4006C4CEAC4074760C0F8B0
:101780001880D268826301621F46D5E0016A21F4A5
:1017900080710162076A4168D0F81C80D2F800901D
:1017A00028F0730828F4803848EA0908D2F8109025
:1017B00027F4007747EA0927D2F8049027F48077C6
:1017C00047EA0927604518BFA04203D0A84218BFC6
:1017D000B04215D1546927F4006C4CEA842C94680B
:1017E0002CF4806C4CEA8427D2F818C021F4805184
:1017F00041EA0C11D2F81CC021F4005141EA4C110D
:101800004160C0F81C80D168C16307621F4693E045
:10181000016A21F480510162076A4168D0F81C8096
:10182000D2F8009028F4E64828F0807848EA0928A1
:10183000D2F8109027F4005747EA0937D2F80490FD
:1018400027F4805747EA0937604518BFA04203D004
:10185000A84218BFB04205D1D2F818C021F4804187
:1018600041EA8C114160C0F81C80D16801640762B4
:101870001F4661E0016A21F480310162076A416D0F
:10188000D2F8008021F0700121F4803141EA080192
:10189000B2F8108027F4003747EA0847B2F804800E
:1018A00027F4803747EA0847604518BFA04203D0B5
:1018B000A84218BFB04208D1D0F804C094692CF4F3
:1018C000803C4CEA042CC0F804C04165D168826DAC
:1018D000816507621F462FE0016A21F480110162D1
:1018E000076A416DD2F8008021F4E04121F0807157
:1018F00041EA0821B2F8108027F4001747EA085798
:10190000B2F8048027F4801747EA0857604518BFEB
:10191000A04203D0A84218BFB04208D1D0F804C0FA
:1019200094692CF4802C4CEA842CC0F804C04165E6
:10193000D168C16507621F463846BDE8F0037047AD
:10194000002C01400040014000440140004801409B
:10195000012908BF00211FD0042908BF01211BD085
:10196000102908BF022117D0402908BF032113D036
:10197000B1F5807F08BF04210ED0B1F5806F08BF9C
:10198000052109D0B1F5805F08BF062104D0B1F56B
:10199000803F0CBF07210821084B18305B5C1844BE
:1019A000D0F800C0064B595C064B8B402CEA030371
:1019B00002FA01F119430160704700001864000841
:1019C000216400087300010070B50446006884B00B
:1019D0000D46012610F0010F41D1E9686868AA6937
:1019E00008432969114308432168254A11400843E7
:1019F0002060A868616821F440510843606068690C
:101A0000A16821F440710843A060A4F18040B0F5C2
:101A10009C300AD0A4F18040B0F588401CBFA4F1EE
:101A20008040B0F5904005D019E00020FFF70CFD94
:101A3000014603E06846FFF7D9FC029900291CBF64
:101A4000286800280BD0AA694FF00006B2F5004FB5
:101A500008D001EB5001B1FBF0F080B2E06004B0BF
:101A6000304670BD490001EB5001B1FBF0F080B28F
:101A70004FF6F0710140C0F342000843EEE700006A
:101A8000F369FFEF10B50446406802F0F6FCA16868
:101A9000086110BD0068012102F059BD002808BF8F
:101AA000704710B50446007E012818BF10BD217B89
:101AB0000020012904D0022910D003291ED026E0DD
:101AC000A16881F824000121606802F004FDE28A27
:101AD000B4F90E10606802F07FFC0CE0A16881F898
:101AE00024000021606802F0F6FCE28AB4F91010CC
:101AF000606802F071FC50B1022009E0A168012089
:101B000081F82400A068D4F812100161F4E70320E2
:101B1000207610BD01230373C181C2820376437610
:101B20007047022303730182C282012101760021E2
:101B300041767047006802F0D8BC10B5406802F0EA
:101B4000B2FCBDE8104002F0CEBB407E704780681A
:101B500000687047806840687047027B0121012A55
:101B600004D0022A07D0032A0AD00FE0B0F90E00F1
:101B700000280BDA08E0B0F91000002806DA03E0CC
:101B8000B0F91200002801DA4FF0FF310846704723
:101B90008068C0687047806800697047027B0021D8
:101BA000012A08BFB0F90E1008467047406802F0DD
:101BB0006EBC006802F0C4BC8068B0F91E007047BB
:101BC0008068D0F81A0070478068D0F81600704717
:101BD0008360C0E9001200210173C1810182C182CA
:101BE0000176704703220273418209148182012128
:101BF0000176002141767047826851828068818237
:101C0000704710B504460068032102F0A0FC0028CC
:101C10001CBF0121217610BD0068072102F097BC8E
:101C2000406802F05EBC0000014661F30F0044F61C
:101C3000E61211FB02F244F6E61311FB23F10A440B
:101C400011444942C913B1F5004FA8BF47F6FF71CF
:101C500004DA11F5004FB4BF054909B261F31F4022
:101C600011F5004F04BF48F2010161F31F407047B6
:101C70000080FFFF70B50546084600F059F82AB20B
:101C800003B212FB03F14FEA254C05141CFB05F0CF
:101C9000081AC0131649B0F5004FA8BF47F6FF70E9
:101CA00004DA10F5004FB4BF084600B260F30F0429
:101CB000104E10F5004F08BF66F30F0412FB05F03D
:101CC0001CFB03F21044C013B0F5004FA8BF47F649
:101CD000FF7103DA10F5004FA8BF01B2204661F38F
:101CE0001F4011F5004F08BF66F31F4070BD000094
:101CF0000080FFFF0180FFFF10B50446084600F09A
:101D000017F814FB00F12214031412FB03FC6144C6
:101D10004FEAE13C29466CF30F0114FB03F312FB7D
:101D200000F0C01AC01360F31F41084610BD000048
:101D300000F50041890911F4407C00F50041C1F330
:101D400087121749C2F1FF0319D0BCF5807F1FD05D
:101D5000BCF5007F0AD0BCF5407F18BF704731F852
:101D6000133031F8121063F31F400FE031F81220E6
:101D700031F8131062F31F4061F30F00704731F820
:101D8000122031F81310524262F31F404942F3E728
:101D900031F8133031F812105B4263F31F40EBE768
:101DA0007A610008F8B58C460446DDE90710069F05
:101DB000C4F830C0C4E9300108481E4615460090FA
:101DC000074B084A21466046FEF7BAFFE763C4E9BD
:101DD0000D56204600F096FBF8BD0000E91D0008F6
:101DE000F11D0008FD24000810B500F08BFB10BDAC
:101DF0002DE9F04105468CB00020984614460E4669
:101E00008DF804004F0912D07A1E0021284603F0F5
:101E100003FC002808BF0B2000F05082D5F8C40056
:101E200006F01F0618B17A1E002103F0F5FB132EF1
:101E300080F04C83DFE806F0BE0AACBDBCBCBBBA88
:101E4000B9B8B7B6B5B4BCBCBCBCBE0026780520DA
:101E50008DF80800472E70D028DC0F2E7ED00BDCCA
:101E60000F2E6BD2DFE806F055929263927A7A7A5F
:101E70007A7A7A7A7A7A7A00172E6FD009DCA6F10C
:101E8000100007285AD2DFE800F072728181696978
:101E900069001D2E5BD004DC182E5FD01C2E4ED0A6
:101EA00074E0412E5AD0462E61D06FE0652E55D099
:101EB0001EDC572E52D00EDC542E4FD006DC482E9E
:101EC00055D04F2E18BF532E48D05FE0552E18BF67
:101ED000562E5BD142E05B2E49D004DC582E18BF51
:101EE000592E53D13AE0612E18BF642E4ED135E001
:101EF000A6F17400152849D2DFE800F01939393904
:101F000039394848483939484848484848483030BD
:101F10003000647831462246D5F8C40003F07CFBDB
:101F200022463146284603F077FB00F02ABA627851
:101F30003146284603F070FB23E218E026E0627881
:101F40000021D5F8C40003F062FB012019E2627899
:101F50000121D5F8C40003F05AFB7BE16078A17839
:101F600000EB01223146284603F056FB09E2607877
:101F7000A178227900EB0120E178090401EB0261EC
:101F800042183146284603F047FBFAE1022095E16A
:101F9000217803208DF80800892980F08E810AE0DD
:101FA000DCE174E25CE24AE221E2EDE1C3E193E1CB
:101FB0008CE287E11AE28800784440688744000098
:101FC00024020000BE0200002402000024020000DF
:101FD000BE02000098020000980200009802000073
:101FE0009802000098020000980200009802000089
:101FF0009802000098020000980200009802000079
:102000009802000098020000980200009802000068
:102010009802000098020000980200009802000058
:102020009802000098020000980200009802000048
:102030004802000074020000BE0200009802000086
:10204000980200009802000024020000FA0200003A
:10205000FA020000FA020000FA020000FA02000090
:10206000FA020000FA020000FA020000FA02000080
:10207000FA020000FA020000FA020000FA02000070
:10208000FA020000FA020000FA020000FA02000060
:10209000FA020000FA020000FA020000FA02000050
:1020A000FA020000FA020000FA020000FA02000040
:1020B000FA020000FA020000FA020000FA02000030
:1020C000FA02000098020000FA020000FA02000082
:1020D000FA020000FA020000BE020000BE02000088
:1020E000BE02000098020000980200009802000062
:1020F0009802000024020000BE02000098020000C6
:102100009802000098020000980200009802000067
:102110009802000098020000980200009802000057
:10212000980200009802000024020000BE02000095
:10213000FA020000980200009802000098020000D5
:102140009802000098020000FA020000FA02000063
:1021500098020000980200002402000024020000FF
:10216000BE020000BE020000BE020000BE0200006F
:10217000BE02000024020000980200009802000045
:10218000BE020000FA02000098020000980200005F
:1021900024020000BE020000BE020000BE020000D9
:1021A000BE020000BE020000BE020000BE0200002F
:1021B000BE020000BE020000BE020000BE0200001F
:1021C00024020000FA02000024020000E4020000E1
:1021D000E4020000E40200009802000098020000FF
:1021E0009802000001AA284602F0CAFE00909DF85D
:1021F0000400002800F07581D5E90C0C01236A4623
:10220000F02100F040B900BFD5F8C400002800F06C
:102210005F81002102F0AAFE8DF80000D5E90C0CC8
:1022200001236A46F021E04701208DF804000CB03C
:10223000BDE8F081D5F8C400002800F049810121F3
:1022400002F094FE8DF80000D5E90C0C01236A46DB
:10225000F021E047012094E001AA284602F090FE18
:1022600000909DF80400002800F03B81D5E90C0C9B
:1022700002236A46F021E0470CB0BDE8F08101AAD4
:10228000284602F07DFE00909DF80400002800F032
:102290002881D5E90C0C04236A46F021E0470CB0F4
:1022A000BDE8F08101AA284602F06AFE00909DF880
:1022B00004000028EDD100F014B903208DF80800C7
:1022C00000F006B9217807208DF80800284602F0B2
:1022D000F3FD8DF80400FBE0002004A902460A5437
:1022E000401CC0B22028FAD3002005E00B18401C87
:1022F000C0B2DA701D2804D2D5F8C020125C092AB9
:10230000F4D1D5F8C010421D20238A5C8DF810202E
:10231000C21D0930895C8DF81110D5F8C01004AACF
:10232000085C8DF81200D5E90C0CF021E047012083
:102330008DF80400CFE020796179E37800EB01208B
:1023400082B22078617800EB0120A178090401EBCA
:1023500003610144284602F0E7FD12E0207961792B
:10236000E37800EB012082B22078617800EB012055
:10237000A178090401EB0361084401B2284602F088
:10238000EBFD8DF80400A3E006A80090217807ABD0
:1023900003AA284603F0C2F8BDF91C005449C0EB5B
:1023A0000010800081FB00108110A1EBE0708DF81F
:1023B0001000010A8DF81110010C8DF81210000E9A
:1023C0008DF81300BDF818008DF81400000A8DF880
:1023D0001500BDF80C008DF81600000A8DF81700E6
:1023E000D5E90C0C082304AAF021E04770E0E0795D
:1023F000227AA37800EB022082B2607894F804C0BD
:1024000000EB0320E37821781B0403EB0C631844F2
:1024100000EB80004300DFF8DCC00020CCFB0303AE
:102420005811A0EBE37003B2607994F806C000EB9A
:102430000C2000B20090284603F012FAA1E72178A0
:102440006078E27801EB002001B2A07800EB022076
:1024500002B2284603F0CEF801208DF804003AE0DD
:102460000C208DF8080004948DF81480224904A8EB
:1024700002F084FD8DF8040050B31F48F021037969
:102480000268D5E90C0CE0470CB0BDE8F0810020F3
:1024900004AA04E01154401CC0B220280DD2D5F883
:1024A000C010095C0029F5D1202838BF002104D2D2
:1024B0001154401CC0B22028FAD3D5E90C0C2023BB
:1024C000F021E04701208DF8040004E00120F5E64A
:1024D0009DF8040028B10023D5E90C0C1A46F02120
:1024E000D1E7D5E90C0C012302AAFF21CBE70000BC
:1024F00067666666898888880C00002010B500F041
:1025000001F810BD10B50446006BE16B88478020D0
:1025100084F8C800A16B206BBDE81040084700009C
:1025200001480068FFF745BB04000020064800781A
:10253000002808BF704710B500F008F802F04EFB05
:10254000BDE8104003F02AB80807002010B50E4C73
:102550002078012818BF10BD608800281CBF608843
:10256000401E02D102F0DAF901206080A08810B18B
:10257000A088401EA080E088002808BF10BDE08829
:10258000401EE08010BD00000807002001480068E0
:10259000FFF737BB0400002001480068FFF73CBB91
:1025A000040000202DE9F34F81B05A4801F0CAFF22
:1025B000594E002406F12C01347058480860A1F1EE
:1025C00008085748C8F8000000F0C0FF03F056FDA7
:1025D000544800F05AFC06F1100B5248CBF80000AA
:1025E00006F10C05504828605048FEF731F9DBF839
:1025F00000104E4A286801F05EFF4D4803F092FA41
:10260000D8F8000000904B4B494A4B482968FDF729
:10261000F9FE4A4800F039FC494800F036FC05F163
:1026200008094648C9F8000005F10C0A4448CAF8F0
:1026300000004448F06101F04BFE05F11C014248E6
:102640000860F169414FC0E94371414800F0F2FB75
:1026500005F114003E49016005F124013D48086080
:1026600001F0B1FD0020FEF78DFB012087F824006A
:10267000286801F002FF3861286801F0FEFE0014AE
:10268000B88207F128002F1FA0F12803386005F158
:1026900028012A68FFF79CFA286801F0FEFE3B68D3
:1026A000014600221846FFF735FA019839680160A3
:1026B0002948DBF800100160D9F800104160DAF811
:1026C0000010C0E90214D8F8001001611A494161F4
:1026D0001649C0E90614164901622968416205F1EC
:1026E0002801816214390968C162F169C0E90C14DA
:1026F00005F11C0184630968C0E90F144464846413
:10270000C4640465029908600120307003B0BDE81C
:10271000F08F00003C07002008070020180500206B
:102720005802002028010020AC01002008030020EE
:10273000D002002030040020E001002054010020DD
:10274000800100206C040020140000207407002089
:102750004404002000050020B8070020B0F8003134
:10276000002220F81310B0F80031A0F802315B1CF1
:102770009BB2A0F80031802B24BF0023A0F80031C9
:102780005FF0000330F913C05B1C9BB26244802BE6
:10279000F8D3D31702EB5362D211A0F804210846F4
:1027A000704700210A4620F81120491C89B280296F
:1027B000F9D3A0F80021A0F802217047B0F9040174
:1027C000704700002DE9F04192B000240C940D9464
:1027D0000E940A94D44806940794089409940F948C
:1027E0000B940294039404940594416941F0805140
:1027F0004161416901F080511091416941F400212A
:102800004161416901F400211091416941F40031B5
:1028100041614069072500F4003010900326CDE99E
:1028200000566946C148FEF735FD009669464FF0EF
:10283000904001960494FEF72DFD2020CDE90C4038
:102840000CA94FF0A0400E94FEF7D2FB0120CDE979
:1028500006400894CDE9094006A94FF0A0400B942A
:10286000FEF7E0FB4FF480300F900FA9B048FEF761
:10287000ADFB4FF0A040816821F04051816081683C
:1028800021F03F0121F0004141F080518160A949D0
:10289000A94A0968B1FBF2F101EB8101A74A49009D
:1028A000A2FB0121C90803D0B1F1004F80F03981AA
:1028B000C26C4FF0F871A24B1A4042F04202C2645F
:1028C000C26822F00072C260C26822F48012C26044
:1028D000C26842F40012C260426822F020024260E4
:1028E000426822F0400242604FF0007292FAA2F376
:1028F000B3FA83F324FA03F300EB83034FF0040CE1
:102900005F6991FAA1F84FF44016B8FA88F826FAF0
:1029100008F605FA06F6B74391FAA1F84FF4401607
:10292000B8FA88F826FA08F60CFA06FC47EA0C0C06
:10293000C3F814C0D0F8B03023F00203C0F8B030B0
:10294000C36C23F0C00343F04003C364C36843F483
:102950000013C360436823F020034360436823F0FF
:102960004003436092FAA2F3B3FA83F324FA03F329
:1029700000EB83034FF0040C5F6991FAA1F84FF06C
:10298000A876B8FA88F826FA08F605FA06F6B743E4
:1029900091FAA1F84FF0A876B8FA88F826FA08F666
:1029A0000CFA06FC47EA0C0CC3F814C0D0F8B0309F
:1029B00023F08003C0F8B030C36C23F0C00343F0B1
:1029C0004003C364C36843F40013C360436823F047
:1029D00020034360436823F04003436092FAA2F36C
:1029E000B3FA83F324FA03F300EB83034FF0040CF0
:1029F0005F6991FAA1F84FF09076B8FA88F826FA54
:102A000008F605FA06F6B74391FAA1F84FF090766A
:102A1000B8FA88F826FA08F60CFA06FC47EA0C0C15
:102A2000C3F814C0D0F8B03023F04003C0F8B03081
:102A3000C36C23F0C00343F04003C3644FF44073FE
:102A400093FAA3F3B3FA83F324FA03F300EB8303BB
:102A5000D3F830C02CF4F86C4CF0800CC3F830C0C4
:102A600092FAA2F3B3FA83F324FA03F300EB83039D
:102A700005265F6991FAA1F84FF4C00CB8FA88F8FE
:102A80002CFA08F805FA08F827EA080791FAA1F8DD
:102A9000B8FA88F82CFA08FC06FA0CFC47EA0C0C89
:102AA000C3F814C0D0F8B03023F00403C0F8B0303D
:102AB0004FF4407393FAA3F3B3FA83F324FA03F3C6
:102AC00000EB8303D3F830C02CF4F83C4CF4004CFA
:102AD000C3F830C092FAA2F2B2FA82F224FA02F2F9
:102AE00000EB8202B446546991FAA1F64FF0C0732C
:102AF000B6FA86F623FA06F6B54091FAA1F1B1FAD4
:102B000081F123FA01F1AC430CFA01F12143516147
:102B1000D0F8B01021F48071C0F8B01012B0BDE848
:102B2000F081491EFDD1C3E60010024000080048B4
:102B30000003005064070020400D0300CDCCCCCC36
:102B40000020088208B5FEF7EBF94FF4FA61B0FBFC
:102B5000F1F0FEF7EDF90749081FFFF723FD03F039
:102B600021FA044B04481A1F00900121101F02F0A3
:102B700093FE08BD08000020586100082DE9F04FC1
:102B80009FB000241A941E941B94009401941C94EA
:102B90001D940294059406940394049407940A9453
:102BA0000B94864E089409940C940F9410940D94F1
:102BB0000E94119414941594B06940F40060B061BF
:102BC000B06900F400601890706940F400307061E2
:102BD0007069012500F400301890F0141290022062
:102BE00013900C20CDE9165012A94FF09040FEF73B
:102BF00051FB40201B904FF416601C90ADF86840CC
:102C00002802CDE91D056E4D1AA92846FEF7A2FC43
:102C1000286820F080002860DFF8A891DFF8A8A1DC
:102C200099F8000050448046016809F109074FF007
:102C3000080B3A780BFA02F2114301606020CDE9EB
:102C400000044FF49660CDE9024004940594069484
:102C50006A46012128460794FEF7F2FCD8F80010D6
:102C600040463A784FF0040808FA02F291430160B6
:102C700099F80200504419900168BA780BFA02F2F0
:102C80001143016001946A46102128460294FEF720
:102C9000D7FC19980168BA7808FA02F291430160EA
:102CA00099F804005044189001683A790BFA02F23E
:102CB0001143016001946A46A91528460294FEF763
:102CC000BFFC189801683A7908FA02F29143016052
:102CD00099F8060000EB0A09D9F80000B9790BFA57
:102CE00001F10843C9F800007020CDE9000440F666
:102CF0005F10CDE902406A46A9142846FEF7A0FC01
:102D0000D9F80000B97908FA01F18843C9F8000040
:102D1000A86820F0700040F01000A860A86820F0BB
:102D2000070020F4803040F00600A860E86820F03A
:102D30004000E860E86820F48040E860686840F09F
:102D400070006860686820F470006860A86820F00F
:102D50008000A860E81408904010099080100A9044
:102D60004001CDE90C04C002CDE90E048DF82C40E1
:102D7000ADF82E404FF4E000CDE9100408A9284634
:102D8000FEF7B6FB706940F400307061706912A9FB
:102D900000F4003018904FF4E0601290022013907D
:102DA0000320CDE9140402201690062017904FF05E
:102DB0009040FEF76FFA1FB0BDE8F08F00100240A0
:102DC000002C014046610008182C014010B5044653
:102DD0000078002818BF002012D194F8260001F0D6
:102DE0009BF8A0F57F41FF3907D0218B238A4A1E2B
:102DF00003FB0200B0FBF1F02082204600F02CF82B
:102E0000E08280B210BD0021018270470178002964
:102E100018BF808A01D000B27047018A026A891AFD
:102E2000B0F91E20808C5143CA1701EB124100EB10
:102E30002140F0E710B50446007820B10020E08280
:102E4000608A208210BD201D01F0CEF884F8260093
:102E50002046FFF7D8FF10BD018A428B914284BF04
:102E600008207047828B8A428CBF0020C08A70473E
:102E7000B0F922007047B0F906007047408B7047E8
:102E8000B0F904007047008B704701888180418849
:102E9000C180018C41840021816081627047816022
:102EA000704741847047C18070478180704700003F
:102EB00070B4B0F90420002402FB01F6B0F906203A
:102EC000B0F914C0B0F91630002A04BF00218160A7
:102ED00014D085684A43A91805D5002DC4BF002A1F
:102EE0006FF0004103E0002DBCBF002A0F49C2680B
:102EF0008A42A5BF0269914282608160827F8168B7
:102F0000057F41FA02F246FA05F52A446245C4BF3C
:102F1000ACEB0204624603DC9342C4BF9C1A1A461F
:102F20002144816070BC10B2704700000100008035
:102F300070B5D0F80C110446C868D1F8161010FB13
:102F400001F210FB3121C81701EB10400514D4F831
:102F5000100102F02DFDD4F8081148434FF416710A
:102F600090FBF1F0684300EB40000849400081FB12
:102F700000108110A1EBE071C81701EB10400114A3
:102F80002046BDE87040FFF7E9BB00006766666653
:102F9000C169084770B50446002511B1012908D060
:102FA00017E000F012F9B4F85200A4F8440080B918
:102FB0000BE0B4F84400002808BF012509D0401EEA
:102FC0000004000CA4F8440003D12169204688477E
:102FD0000125284670BD4268104730B4038E0AB2FE
:102FE00053430A14B0F850104A435200524202EBC5
:102FF000030CA2EB03030CEBDC7C03EBD3735FEA63
:103000006C0C4FEA63034FEA910153D5002B18DA99
:10301000042280F83A20ACEB0302D41702EB94327E
:1030200001EBA241DA1703EBD23201EB62434FEA24
:10303000EC720CEBD232A1EB624CA0F83CC0C18721
:103040006CE0002A1BDC4FF0030C80F83AC0A2EBC6
:10305000030C4FEAEC740CEB943C01EBAC414FEAEF
:10306000E37C03EBDC334FEAE27C01EB634302EBEE
:10307000DC32A3EB624CA0F83CC0C38717E002230C
:1030800080F83A30ACEB0203DC1703EB943301EB2E
:10309000A3414FEAEC730CEBD333A1EB634CD31792
:1030A00002EBD3320CEB62438387A0F83EC0A0F85A
:1030B000401052E0002B17DB012280F83A20ACEBE5
:1030C0000302D41702EB943201EBA241DA1703EBAF
:1030D000D23201EB62434FEAEC720CEBD2328387BF
:1030E000A1EB624CC18736E0002A1ADC052380F888
:1030F0003A30ACEB0203DC1703EB943301EBA34152
:103100004FEAEC730CEBD333A1EB634CD31702EB18
:10311000D33281870CEB6243A0F83EC0A0F8403068
:103120001BE04FF0000C80F83AC0A2EB030C4FEA12
:10313000EC740CEB943C01EBAC414FEAE37C03EB09
:10314000DC3301EB63434FEAE27C02EBDC32818744
:10315000A3EB624CC387A0F840C00029D8BF002170
:1031600089B24186002BD8BF00239AB28286BCF177
:10317000000FD8BF4FF0000C1FFA8CF3C386B0F8D5
:103180004EC0BCF1010F02D0816930BC0847B0F9D4
:1031900048C0BCF1000FB0F854C0CCBF6144A1EBF3
:1031A0000C014186B0F94A1000291FFA8CF1CCBFFE
:1031B0001144511A8186B0F94C1000291FFA8CF184
:1031C000CCBF1944591AC186DEE781680847C16837
:1031D00008474169084790F8721091B9416F91F81A
:1031E0007A20022A0DD18A69B1F86C109162416F80
:1031F000CA69B1F86E109162426F116AB2F870201C
:103200008A62012180F8701046307047416F49682A
:103210004A6C42F480624A64012180F8711080F89F
:1032200072104630704700002DE9F0470446406FA9
:103230000026D0E90085E6652666666684F86E603D
:10324000286A20F0550020F4A06028624C49616093
:103250004C49A1614021A4F86C10042784F86F70D8
:10326000204684F83A7000F093FD7020696830EAD7
:103270000101FBD1D8F8080020F03F0020F0004009
:1032800040F00800C8F80800606F04F16E0304F114
:10329000380190F87B20284602F020FF204600F0FD
:1032A0004AFD84F86E603848606084F86F6084F886
:1032B0003A60204600F06CFD606F04F16E0304F18B
:1032C000380190F87B20284602F008FF204600F0E5
:1032D00032FDE06D2F4B0009E065206E000920668D
:1032E000606E00096066294860602948A06119780D
:1032F00005F1180001EB000CDCF8008003F1090176
:10330000082291F8009002FA09F928EA0908CCF895
:10331000008093F802C08444DCF8008091F80290A9
:1033200002FA09F928EA0908CCF800801B79184448
:103330000368097902FA01F123EA01010160B4F896
:1033400068006863B4F86800A863B4F86800E863CC
:1033500001212846FEF73EF910212846FEF73AF9EA
:103360004FF480712846FEF735F9296A40F255502E
:103370000843286284F83A7084F87260BDE8F087E8
:10338000B5340008993C0008093500089933000855
:10339000C73C00081864000870B490F83AC0436F46
:1033A000242404EB8C045A681C5925683C2404EB43
:1033B0008C041B591C68536823F0700353603C4A0B
:1033C000530CBCF1060F64D2DFE80CF01D40400343
:1033D000031DD0F85CC0ACEB050C1CF5004FD8BF4A
:1033E0000A8005DDBCF5004FACBF0B80A1F800C022
:1033F000D0F860C0ACEB040C1CF5004F45DDBCF50B
:10340000004F3DDA43E0D0F860C0ACEB050C1CF592
:10341000004FD8BF4A8005DDBCF5004FACBF4B80E4
:10342000A1F802C0D0F864C0A4EB0C0CB1F90240C2
:10343000ACEB040CBCF5004FA8BF0B8029DA1CF5DF
:10344000004FD4BF0A80A1F800C022E0D0F85CC0D1
:10345000ACEB050C1CF5004FD8BF0A8005DDBCF5B0
:10346000004FACBF0B80A1F800C0D0F864C0A4EB43
:103470000C0CB1F90040ACEB040CBCF5004F01DBC7
:103480004B8006E01CF5004F01DC4A8001E0A1F80A
:1034900002C00A88A0F848204A88A0F84A200A8872
:1034A000498811444942A0F84C1070BC7047000094
:1034B0000180FFFF30B490F86F40426F4FF0240C52
:1034C0000CEB840C536852F80CC0DCF800C03C25AF
:1034D00005EB8404125912685C6824F070045C6087
:1034E00090F86E30102B0AD2C36D6344C365036E2F
:1034F0001A44026690F86E20521C80F86E2000205C
:103500000880488030BC704710B4436F90F86FC09B
:103510003C2404EB8C0C5A6853F80C301B68D2F82E
:1035200004C02CF0700CC2F804C090F86E20102A71
:1035300007D2426E1A44426690F86E20521C80F800
:103540006E2000200880488010BC70472DE9F04FA5
:10355000416F034689B0D1E90140D1E90365D1F853
:1035600014C009684A6822F004024A6004220A6012
:103570004A6822F020024A6020220A60A4F18042B8
:10358000B2F5963204D1DE4AD76847F00107D7601A
:10359000DFF87093DC4ADD4F4FF4801E002859D0CD
:1035A000D3F8748098F87DA0BAF1010F46D0D0F816
:1035B00000A00AF0700ABAF1400F3FD1B8F876A027
:1035C0004FF4700898FAA8F8B8FA88F82EFA08F8B4
:1035D00002EB8808D8F808B06FF30F1B4BEA0A0A11
:1035E000C8F808A0D2F804804FF0010A48F001089A
:1035F000C2F80480D2F800803AEA080811D0D2F864
:10360000008048F00108C2F80080D7F80080B8FBBD
:10361000F9F8D8EB081811D0B8F1004F80F06681A6
:103620000CE0D7F80080B8FBF9F808EB48085FEA2F
:10363000880803D0B8F1004F80F05481D0F80080A2
:1036400048F00108C0F80080D0F8008048F0004839
:10365000C0F800803EB1306840F001003060306852
:1036600040F0004030603DB1286840F00100286023
:10367000286840F000402860BCF1000F49D0586F26
:1036800090F88050012D38D0DCF8005005F070051E
:10369000402D32D14FF4700595FAA5F5B5FA85F5B0
:1036A0002EFA05F502EB8505B0F87800AE686FF3E9
:1036B0000F163043A8605568012045F0010555609C
:1036C0001568A8430ED0106840F0010010603868FB
:1036D000B0FBF9F0D0EB00100FD0B0F1004F80F04C
:1036E0000C810AE03868B0FBF9F000EB4000800084
:1036F00003D0B0F1004F80F0FD80DCF8000040F016
:103700000100CCF80000DCF8000040F00040CCF8EC
:103710000000886810F0010F6BD1886800F04050FD
:10372000B0F1805F2FD0886820F040528A608868AE
:1037300020F03F0020F0004040F080528A60744A40
:103740003868B0FBF2F003900090E0B1B0F1004FA8
:1037500079D20028D8BF002005DD10F0010002D08A
:10376000039A521E0392009A401C521C90420ADA9D
:10377000DDF80CC0801CACF1010CACF1010CCDF8F3
:103780000CC09042F4DB886820F03F0020F04040FD
:1037900040F000428A60886810F0004FFBD1086852
:1037A00010F0010F0BD18A6822F03F0222F0004294
:1037B00042F001028A60086810F0010FF3D08868B7
:1037C00020F03F0020F0004040F008028A60886846
:1037D00020F03F0020F0004040F020028A60C868DE
:1037E00040F40012CA6040200860486840F0400081
:1037F000486020681D464FF47A7620F00100206072
:10380000606820F07000606001212046FDF7E2FE54
:1038100010212046FDF7DEFE4FF480712046FDF7B3
:10382000D9FE4FF480512046FDF7D4FE606940F088
:1038300001006061686F90F88110022904D095F84A
:103840004610A1B127E047E090F88210012904BF9B
:1038500090F87B00032811D14FF0010020636069CC
:1038600040F0010060614FF00300206306E090F833
:103870007B00012802D0032805D00CE0B5F86800D1
:10388000401E606207E001202063606940F0010093
:103890006061032020636FF080002061686F90F802
:1038A0007C00002818BF6FF4807108D02069C0F335
:1038B000002000281EBF002E2161761EF6D1E06890
:1038C00040F08000E060216A40F2555041EA00007B
:1038D000206209B0BDE8F08F0398401E0390FCD130
:1038E00051E700BFB8F10108FCD1A7E6B8F1010823
:1038F000FCD1A3E6401EFDD1FFE6401EFDD1FCE653
:10390000002004E080841E00007400406407002052
:10391000400D0300002190F871300A46012B04BFCE
:10392000022180F8712090F87030012B04BF41F023
:10393000400180F8702008467047000070B50546C9
:10394000406F446895F84700012818BF70BD206893
:1039500010F0100FFBD0206810F0100FFBD1602288
:1039600001212046FDF7F4FF206A40F001002062AB
:10397000686F90F87A00012804BF206A40F00400C4
:1039800005D0022804BF206A20F0040000D1206284
:10399000B5F8680040086063602210212046FDF7FA
:1039A000D7FF206A40F010002062686F90F87A001C
:1039B000012804BF206A40F0400005D0022804BF5F
:1039C000206A20F0400000D12062B5F8680040086D
:1039D000A06360224FF480712046FDF7B9FF206A92
:1039E00040F480702062686F90F87A00012804BF6C
:1039F000206A40F4806005D0022804BF206A20F4C9
:103A0000806000D12062B5F868004008E063686F0C
:103A10000068C16821F48011C160064868600648EA
:103A200068610648E8600648A860002085F84700FD
:103A300070BD0000993300087B3E0008913D0008EE
:103A4000373D000870B50546406F446895F847005B
:103A500000283ED1602201212046FDF779FF206A2F
:103A600040F001002062206A20F004002062002063
:103A70006063686F90F87A00012802D002280DD0A8
:103A800019E0102211462046FDF762FF206A20F05F
:103A900010002062206A40F040000BE0202210213C
:103AA0002046FDF755FF206A40F010002062206A92
:103AB00020F04000206270224FF480712046FDF714
:103AC00047FF206A20F480702062206A20F4806022
:103AD000206206486860064868610648E860064853
:103AE000A860012085F8470070BD0000313B000848
:103AF000513C0008753B0008373D00080246406F06
:103B00004368B2F868004843010C5186032082F8EC
:103B10003A0088B25863586810F0700018BF01204E
:103B2000118F012918BF70470120002111877047AC
:103B3000426F5268536823F07003536090F83A3034
:103B40004FF03C0C426F0CEB8303D2581268006EAE
:103B5000801A074A9042D8BF104605DD47F6FF722B
:103B60009042A8BF47F6FF70088048807047000069
:103B70000180FFFF10B4426FD2E90031002280F8CB
:103B800042200A6812F0100FFBD10A6812F0100FE1
:103B9000FBD001224A63B0F86820521F0A646FF01C
:103BA000010CC1F810C00A6912F0010FFBD0C1F876
:103BB00010C04A6C42F480624A644A6C42F400428B
:103BC0004A64426F92F87AC0BCF1020F2FD1D1F84B
:103BD00020C040F255541CEA040FD2F818C0B2F8C5
:103BE0006C2012D0CCF81820D0F874C0DCF81C205F
:103BF000BCF86EC0C2F818C0D0F874C0DCF8202041
:103C0000BCF870C0C2F828C011E0CCF82820D0F869
:103C100074C0DCF81C20BCF86EC0C2F828C0D0F814
:103C200074C0DCF82020BCF870C0C2F828C00322A1
:103C300080F83A20986820F03F0020F0004040F0E3
:103C400008009860C86840F00100C86010BC704768
:103C5000416F002249684A63931E0B610A6912F0A2
:103C6000010FFBD00B614A6C42F400424A64416F81
:103C700091F87A20022A18BF70478A69B1F86C104F
:103C80009161426FD169B2F86E208A62416F086A11
:103C9000B1F870108162704790F86F1080F83A1098
:103CA000B0F86810438E491E8AB2416F49684B6371
:103CB000838E8B63C08EC8630A64486810F07000FE
:103CC00018BF0120704730B4446FB0F86820818F6E
:103CD000B4F872C0531A9BB2634506D9042180F828
:103CE0003A1091B2491E89B216E0C58F4D1BADB294
:103CF000B5EB430F84BFB4F87420891A0BD8614424
:103D000089B2914208D38022A0F86C20B0F86820D4
:103D1000C1EB4201491E89B26268438E5363838EB0
:103D20009363C08ED0631164506810F0700018BFA8
:103D3000012030BC7047416F4968CA6822F0010217
:103D4000CA60002280F842204A6C22F400424A6491
:103D500090F87220012A12D0426F92F87A30022B2A
:103D60000DD19369B2F86C209A62436FDA69B3F8A7
:103D70006E309362426F106AB2F8702082626FF008
:103D800001020A61086910F0010FFBD00A61704757
:103D900010B4416F0022496880F84220B0F86820D2
:103DA00052084A63B0F8682052088A63B0F8682065
:103DB0005208CA63B0F86820521F0A646FF001030A
:103DC0000B610A6912F0010FFBD00B614A6C42F4DF
:103DD00080624A644A6C42F400424A64426F92F83C
:103DE0007AC0BCF1020F28D1D1F820C040F255545E
:103DF0001CEA040FD2F818C0B2F86C200FD0CCF82F
:103E00001820D0F874C0DCF81C20BCF86EC0C2F8D2
:103E100018C0406F026AB0F8700090610DE0CCF8F5
:103E20002820426FD2F81CC0B2F86E20CCF82820AF
:103E3000426F106AB2F8702082620B61C86840F06D
:103E40000100C86010BC704710B4426F90F83AC0CF
:103E50005424D2E9001304EB8C0C52F80C2030F8F7
:103E60006CCF42EA0C02CA645A6842F070025A608F
:103E7000402120F8261910BC7047416F01226FF0D5
:103E80000103496880F84220426F526813610022A2
:103E90004A638A63CA630A6912F0010FFBD04A6C55
:103EA00042F400424A64416F91F87A20022A18BF16
:103EB00070478A69B1F86C109161426FD169B2F8AC
:103EC0006E208A61406F016AB0F8700088617047A7
:103ED0000E49486810F480320D4803D0B2F5803F97
:103EE00008BF0C48CA6A496802F00F02521CB0FBB6
:103EF000F2F04FF4701292FAA2F201F47011B2FAD9
:103F000082F2D140891C48437047000000100240F3
:103F100000093D0000127A00204A10B452F8201027
:103F200002230C6809798B4043EA816301EB410C61
:103F3000092991BF43EA0C51194901EB0C5119436E
:103F400088BF41F0007100234FF4407C9CFAACFC28
:103F5000BCFA8CFC23FA0CF304EB8303D3F830C0D7
:103F6000C1F384612CF4F86C4CEA8111196352F8A6
:103F7000201009680B6C8B6823F03F0323F000438B
:103F800043F004038B6052F820000068016811F0D0
:103F9000040FFBD0006C10BC80B270470C080020EE
:103FA000000020FE10B50E4C6078012818BF10BD2F
:103FB0002078FFF7B1FF6080014602206070094A57
:103FC000207852F83030002B08BF10BD4FF0000CA5
:103FD00002EBC00284F801C05268BDE810401847E7
:103FE000420700201C08002070B4FF21DFF81CC12C
:103FF000002200BF5CF82230DBB11D790479A542B4
:1040000005D11B680468A34204BF11460422521C58
:10401000D2B2042AEED3042974D23D4B4CF82100CD
:10402000002243F831200268936813F0010F04D096
:1040300028E0042988BF1146E9E7536823F0040308
:1040400053600268042313600268536823F020035E
:1040500053600268202313600268936823F03F03D3
:1040600023F0404343F0004393600268936813F0E9
:10407000004FFBD1936823F03F0323F0004343F04C
:10408000010393600268136B23F00F03136302793B
:104090004FF0020C092A0CFA02FC03684CEA826C0D
:1040A00002EB420298BF4CEA025206D9194C04EBCB
:1040B00002524CEA020242F000724FF00074D0F853
:1040C00008C094FAA4F402F00070B4FA84F4E0405A
:1040D00003EB800043694FF0F87494FAA4F502F002
:1040E000F872B5FA85F522FA05F5072606FA05F500
:1040F00094FAA4F4B4FA84F4E240AB430CFA02F26A
:104100001A43426170BC0846704700000C0800204A
:104110001C080020000020FED0E902134269012B98
:1041200005D9D0F810C0A3F10103614405E005D121
:1041300041684FF0000301FB02F1C360816091FB15
:10414000F2F070472DE9F05F04460E468068616921
:104150005FEA020990FBF1F74FF0010A11D0F01B62
:10416000804601F04DFD8346384601F049FD054685
:10417000304601F045FD5D450CD9584588BF58468D
:104180000BE0304601F03CFD60617043A060002010
:10419000E06014E0854238BF284600FB07F160610B
:1041A000C4E9016121684FF47A7201FB09F1B1FBA6
:1041B000F2F1491C08FB00F090FBF1F0E160206196
:1041C0005046BDE8F09F002181604160C1600161FF
:1041D00001214161704701460020C968002908BFDC
:1041E000012070472DE9F04700260446008B354634
:1041F000B04637464FF6FF79002816D994F82600C6
:10420000FFF78AFE48450DD0002F04BF05462E4615
:1042100005D0A84238BF0546B04288BF0646791C83
:10422000CFB28044208BB842E8D8218BA8EB06009F
:10423000401B891EB0FBF1F082B24A4520D094F8B1
:104240002510206A20F811200021238B0846002B1E
:1042500088BFD4F820C006D93CF81050401CC0B22A
:1042600029448342F8D8B1FBF3F0E080A28094F8AF
:104270002500591E8842B4BF401C002084F8250048
:10428000204600F003F82081BDE8F087C188428B0A
:10429000914284BF02207047808B88428CBF0420EB
:1042A00000207047418B828B038B11444A08002108
:1042B000002B07D9036A23F81120491C038B89B20C
:1042C0008B42F7D88280C280002180F82510704789
:1042D00010B504460C30FFF787FE84F82600204610
:1042E000FFF7E0FF10BDB0F90C007047B0F9040013
:1042F0007047B0F910007047B0F90C10B0F9140015
:10430000C1EBC13191FBF0F000B2704730B4B1F9AC
:104310000050012490F803C000230278002DBABF9A
:10432000694289B20988858A8D4238BF0123C58ACE
:104330008D4288BF0123B0F912100029BABF49424B
:1043400089B2418A058B8D4228BF002B04D062457B
:104350003CBF511CCAB202E0624538BF0022624530
:1043600008BF00240270204630BC704770B5054677
:10437000007800280CBFAC686C68E968012904D992
:10438000AA69A1F10101144405E005D169884FEA49
:1043900001444FF00001E960012805D0E01704EB6B
:1043A00010400014AC6070BDE01704EB1040061420
:1043B0006869FFF798FF301A01B22869FEF778FDA7
:1043C0000104C5E9014170BD0178012918BF70479A
:1043D00000690021FEF763BD2DE9F0410446007835
:1043E00017460D46012660B16068C11700EB114009
:1043F000E18B0014A942A4BFB4F924108D4212DA53
:104400000FE0204600F051F8E18CA94205DAB4F93A
:10441000281000268D421CDA03E0B4F928108D42E2
:1044200008DA002615E0218C8D42BCBFB4F92210B9
:10443000A942F6DB87B16580A18B4FF47A7279438C
:10444000B1FBF2F1491C281A000490FBF1F0E16085
:10445000A0613046BDE8F08121782804012914BF0D
:10446000A06060600020E060F2E710B5044640699B
:10447000FFF739FF0004606010BD0146C28D098E50
:1044800062F30F0061F31F407047C08B70474068B4
:10449000C11700EB114000147047B0F92C007047B1
:1044A000B0F924007047406970478068C11700EB7D
:1044B000114000147047C0E9041290F82A100170EE
:1044C000818D09044160C18D090481600021418012
:1044D000C1608161704701700021C1607047416116
:1044E00070470021C16081617047027800210B2A6A
:1044F00004D1092101700021818001210846704703
:10450000B0F802C003784CEA010C2CEA02024280A7
:10451000B0F804C00A2B4CEA0101818005D012B129
:104520000A2101700B4618467047002AFBD10B2167
:1045300001700B46F7E78188408841EA00407047E8
:10454000007870470021017041808180704710B56C
:1045500002780024152A6CD2DFE802F00E1B3033FB
:10456000525E636669706B6B0B21262B3D424D5882
:104570004800002966D05CE003291CBF01290C29F2
:1045800060D0072903D000228021FFF7B9FF204621
:1045900010BD07291CBF0D290E2953D049E00E2953
:1045A00018BF07294ED044E00F2918BF072949D06A
:1045B0003FE0022918BF072944D03AE0072941D03B
:1045C00037E0072918BF10293CD004291CBF112946
:1045D000012937D02DE0112918BF072932D028E052
:1045E00012291CBF072914292CD022E0122918BF38
:1045F000072927D01DE0042918BF072922D018E079
:1046000013291CBF072905291CD012E004291CBF4F
:104610000729052916D00CE0062918BF072911D053
:1046200007E007290ED004E008290BD001E0092992
:1046300008D0032918BF0129A9D0A2E7002918BF73
:104640000C29F6D14FF001040170A0E710B5084C19
:104650002078022805D1FCF7CDFBFCF77FFC002079
:104660002070C0B2401C2070BDE81040FDF75EBF56
:1046700046070020284810B5016821F0070141F0E5
:1046800002010160016801F007010229FAD1234CFF
:10469000206840F480302060206810F4003FFBD098
:1046A000606820F4741141F4E8114FF480306160C7
:1046B000E16A60F30301E162206840F080702060ED
:1046C000206810F0007FFBD0606820F0F000606090
:1046D000606820F4E06040F480606060606820F40E
:1046E00060506060606820F0030040F0020060608D
:1046F000606800F00C000828FAD10948FCF7F2FEC7
:104700000420FCF791FB08B172B6FEE7206B40F481
:104710008070206310BD00000020024000100240A5
:1047200000A24A040248016841F470010160704728
:1047300088ED00E010B50D4C206810F0800F05D01A
:104740006FF0800020600A48FEF760FD09480069AC
:10475000C0F3002028B16FF4807020600448FEF799
:104760003AFDBDE81040FDF7F1BE0000102C0140FD
:1047700058020020002C014003496FF0010008603E
:104780000248FFF761BB0000102C014058020020D6
:10479000034900208988002908BF012070470000D4
:1047A00008070020054810B50068FFF7C4FA00228A
:1047B000BDE8104080210248FFF7A2BE2C07002070
:1047C0003C0700202DE9F04F4C4C8BB04FF0000B14
:1047D000D4F81A0006904A480078132808D1494DA9
:1047E0002868FFF7F8FC18B92868FFF795FC2082C5
:1047F00045480068FFF757FE0A90FFF777FD074628
:104800000A98FFF776FDDFF804A109A9DAF800009D
:10481000FEF7E1FB0998FDF707FA81463946FDF7F7
:1048200029FA0546B4F9100029B2411AAAF110007C
:104830000068FEF73DFB60F30F06B4F91200A0EB31
:104840002541AAF10C000068FEF732FB314660F307
:104850001F410AF108000068FCF7D0F980460A9869
:10486000FFF747FD39464046FDF746FA0646314612
:10487000DAF80000FEF7B1FBC4F816800999E5608C
:10488000C4E90019C4F81A602784012821D02048FF
:10489000FBF784FC054660680790AAF12400C06914
:1048A00001F08BF8ADF8200006A91A48FBF780FC50
:1048B0001848FBF769FD002D04BF1648FBF78BFD78
:1048C0000F48FFF73DFE04281CBF1328052811D10F
:1048D00007E04FF000024FF001010948FFF710FE1A
:1048E00008E00C48FFF702FDADF8000069460A48F1
:1048F00001F0B3F80BB05846BDE8F08F7407002004
:104900003C07002038070020140700202C07002057
:10491000E001002008030020D002002070B582B022
:104920000020ADF800006946A048FBF7BFFF044631
:104930009F480068FEF7FCFA9E48FFF701FEC01E84
:10494000112824BF02B070BDDFE800F0095BD9F682
:10495000F4F3F21C1C1C1C1C1C1E2F3EB0009648BD
:104960000068FDF7FAF801469448FBF776FD944895
:104970000068FFF782FA142000F08CF910218D48AE
:10498000FFF7E5FD02B070BDFFF702FF002804BF8E
:1049900002B070BD8A4800210068FEF7FBFA1121C1
:1049A0008448FFF7D4FD02B070BD8548012100683E
:1049B000FEF7F0FA002804BF02B070BD12217D4856
:1049C000FFF7C5FD02B070BD7E49012081F82400CB
:1049D0007D487E490068FFF782FD7448FBF7FAFEC8
:1049E00004217448FFF7B3FD002804BF02B070BD76
:1049F0000020FCF7C7F972480068FFF7C9F902B058
:104A000070BD6E48FBF76EFE002849D06E48006806
:104A1000FFF7ACFC60F30F046A48818A61F31F441E
:104A2000046101A9694800F0CAFF6448FBF7B6FBBE
:104A3000002804BF02B070BDBDF904105B48FBF74D
:104A4000D4FF04466248FDF788F8C1B25748FCF726
:104A500088F821465D4801F0B2F8002C04BF02B08E
:104A600070BD5248FFF742FC564D01466A68104639
:104A7000FDF700F9574C06462068FFF7A4FBB5F98F
:104A8000101000222068FFF75DFB31B21922206868
:104A9000FFF758FB1321201DFFF759FD02B070BD31
:104AA000002210214348FFF72BFDBAE74348FBF7EC
:104AB00019FEE8B101A9454800F081FF04464348CA
:104AC00001F08BF8204304BF02B070BD424C206857
:104AD000FEF7D4F93B49B1F9101041432068FEF7C5
:104AE000DEF9052104F12400FFF731FD02B070BDAD
:104AF000002210212F48FFF703FD02B070BD324C99
:104B00002A492068FFF7EBFC0020FCF771F9002030
:104B1000FCF71EF9062104F12800FFF718FD2068B4
:104B2000FFF7A3FC201F0068FCF7B8FF02B070BDC0
:104B30002EE024E00FE0FFE71F480068FCF7AEFF1F
:104B40000020FCF705F9002CF0D1002220211948A3
:104B5000FFF7D6FCEAE71A480068FFF7ECF80020F8
:104B6000FCF710F912480068FDF71BFE4FF448707F
:104B700000F096F808210F48FFF7E9FCD6E700F0AF
:104B800095F80028D2D009210A48FFF7E0FCCDE7CC
:104B90000D480E490068FFF7A2FC0C4800F0ACFF7E
:104BA00000210448FFF7D3FCC0E700000803002001
:104BB000300700203C07002010070020E001002003
:104BC0002C0700207407002014070020D0020020CA
:104BD0009C070020380700201807002006480078AE
:104BE000012818BF704710B5002000F007F8BDE895
:104BF0001040FFF7D7B9000008070020F8B50446B9
:104C00001F48006800901F4850F82400FEF7DEF8A7
:104C10003DF814101C4F00EA010557F82400FEF778
:104C2000B7F9054344B9A7F12400C069FFF7DAFAE0
:104C3000BDF8001008400543E84382B2134804EB76
:104C4000440100EB410629463046FFF759FC304647
:104C5000FFF776FC0A2806D00B2804BF57F824007B
:104C6000FEF7B3FAF8BD57F82400FEF7AEFA204677
:104C7000FCF788F8064850F82400FDF792FDF8BDCF
:104C800078610008280700202C0700203C0700203E
:104C90003007002001498880704700000807002085
:104CA0000149C88070470000080700200349002020
:104CB000C988002908BF01207047000008070020AC
:104CC000002180F81C117047FCF725B808B50821B1
:104CD0008DF8001001236A46FF2100F075F808BD29
:104CE00038B590F81C212B4D0446002A4FD094F87B
:104CF0001D31C9B28BB10022012B15D094F89AC096
:104D00000CF1020C63451AD204F19900195494F87D
:104D10001D01401C84F81D0139E084F89910208A97
:104D200060821D4D0120F5E784F89A10022084F876
:104D30001D01C8B2802828BF84F81D2127E084F80F
:104D40001B116282D4F82001144D016821F020016A
:104D5000016084F81C2104F19900FBF7C5FF94F869
:104D60001B1188420AD1D4F808C094F89A3094F8FC
:104D7000991004F19B022068E04708E00A208DF8B2
:104D8000000001236A46FF21204600F01DF8284656
:104D900038BD00002A6400082C6400082E64000856
:104DA00090F81C1100291CBF01207047002180F8D9
:104DB0001D11012180F81C11D0F82001016841F07B
:104DC000200101600220704710B5044690F897005A
:104DD00000281CBF012010BD04F1160C2175581EBF
:104DE0006375C0B207D300BF12F8011B401E0CF858
:104DF000011BC0B2F8D204F11400FBF775FF84F870
:104E00009600002184F89810012184F89710D4F8B6
:104E10002001016841F080010160022010BD90F87E
:104E200097200146002A08BF704791F89820002A71
:104E300008BF0A7D0CD0012A08BF4A7D08D04B7DEF
:104E40009B1C9A423ABF01F11403D25C91F8962060
:104E5000D0F820311A854B7D91F898209B1C9A42FE
:104E60003EBF501C81F898007047D1F820010268BD
:104E700022F080020260002081F89700D1E9000151
:104E800008478169002908BF704708474169002920
:104E900008BF70470847000070B5064C0546A0687B
:104EA00000F061FBA84218BF70BDA068BDE870406B
:104EB000FFF7E7BF4807002070B5026A90F82C00A2
:104EC00001240F2952F820502AD2DFE801F02919D5
:104ED00015082A2A111D21252929292915002846C6
:104EE000FCF767FE062804BF2846FCF799FE18E089
:104EF0002846FCF75EFE18B12846FCF78DFE10E050
:104F00002846FCF77EFE0CE02846FCF713FE08E07E
:104F10002846FCF7BFFD04E02846FCF7B3FD00E09F
:104F20000024204670BD000010B5036A90F82C00E4
:104F300001EB8101DFF81CC053F820004B00002179
:104F4000CCFB03135911A1EBE37109B2FCF7E2FDAD
:104F5000012010BD8988888810B5036A90F82C005C
:104F600053F82000FCF7DDFD012010BD0346892029
:104F70009A68002A08BF70471846104700207047FB
:104F8000F0B58446436A90F82C00DCF8204083B0EA
:104F900053F8203054F820600020002A1CBF012460
:104FA00014700924FE4D242900F0968215DC242972
:104FB00042D2DFE801F04E5359985F6C7278FBBE25
:104FC000C4CAD0D5DBE1E7FA4141F9F84141417E5D
:104FD00084F7F6F58AF4F341F2F1362900F0D08136
:104FE0000EDCA1F12501112926D2DFE801F0EAE962
:104FF000D8D7DFB4E8E7E6E52525E4E3E2E1E00021
:105000005B2976D009DCA1F13D01072914D2DFE844
:1050100001F0FCFBFAF9A2F8F700722902BF0120A7
:1050200003B0F0BD0EDC6E2977D06F297BD07029DC
:1050300002BFDC4803B0F0BD002A1CBF0021117084
:1050400003B0F0BD73290CBF02208129F4D103B055
:10505000F0BD604600F087FA03B0F0BD986A03B077
:10506000BDE8F040FFF767BA986A03B0BDE8F040CA
:10507000FFF766BA3046FCF799FDC0EB00108000E0
:1050800085FB0010811003B0A1EBE070F0BD186843
:1050900003B0BDE8F040FDF7F3BE186803B0BDE80B
:1050A000F040FDF7E8BE186803B0BDE8F040FDF73A
:1050B000DFBE186B03B0BDE8F04000F079BCD86AE1
:1050C00003B0BDE8F040FDF7A1BE3046FCF735FD6A
:1050D000C0EB0010800085FB0010811003B0A1EB35
:1050E000E070F0BD05E003B03046BDE8F040FCF7ED
:1050F0002CBD3046FCF729FD0128BBD13046FCF71A
:105100004DFDC0EB0010800085FB0010811003B046
:10511000A1EBE070F0BD00E005E0186803B0BDE869
:10512000F040FDF7B0BE186803B0BDE8F040FDF7F1
:10513000A5BE586803B0BDE8F040FDF7A1BE5868B1
:1051400003B0BDE8F040FDF796BE586803B0BDE877
:10515000F040FDF78DBE3046FCF71DFD00F045B96F
:10516000986803B0BDE8F040FDF78ABE986803B0C8
:10517000BDE8F040FDF77FBE986803B0BDE8F040A1
:10518000FDF776BE9CF82C10DCF8280050F82110B2
:105190000020B4EB117F15E09AE18EE189E184E112
:1051A0004CE145E13EE153E06EE01AE0A0E1CDE0E4
:1051B000B4E099E07EE031E0AAE1A5E1A0E19BE165
:1051C00092E18DE108BF9869C1F30361092908BF25
:1051D000D86900281CBF01AA694651D0FBF76CFCB6
:1051E0004EE09CF82C10DCF8280050F8211000202C
:1051F000B4EB117F08BF9869C1F30361092905E089
:10520000F6E0DBE044E137E12AE11DE108BFD869BF
:1052100000281CBF6A4601A932D0DFE79CF82C2089
:10522000DCF8281051F822200021B4EB127F08BFCF
:105230009969C2F30362092A08BFD969002904BF2A
:1052400003B0F0BD084603B0BDE8F040FFF74EB82C
:105250009CF82C10DCF8280050F821100020B4EB4A
:10526000117F08BF9869C1F30361092908BFD86994
:1052700000281CBF01AA694602D000BFFBF724FC2E
:10528000BDF9000003B0F0BD9CF82C10DCF828003C
:1052900050F821100020B4EB117F08BF9869C1F3CA
:1052A0000361092908BFD86900281CBF6A4601A903
:1052B000E6D0E3E79CF82C20DCF8281051F82220F7
:1052C0000021B4EB127F08BF9969C2F30362092A77
:1052D00008BFD969002904BF03B0F0BD084603B078
:1052E000BDE8F040FFF708B89CF82C20DCF8281047
:1052F00051F822200021B4EB127F08BF9969C2F354
:105300000362092A08BFD969002904BF03B0F0BDB0
:105310000846FBF7C5FB03B000B2F0BD9CF82C209B
:10532000DCF8281051F822200021B4EB127F08BFCE
:105330009969C2F30362092A08BFD969002904BF29
:1053400003B0F0BD0846FBF7ABFB4EE09CF82C2009
:10535000DCF8281051F822200021B4EB127F08BF9E
:105360009969C2F30362092A08BFD969002904BFF9
:1053700003B0F0BD0846FBF789FB03B000B2F0BDF7
:105380009CF82C20DCF8281051F822200021B4EBE6
:10539000127F08BF9969C2F30362092A04E0000082
:1053A000676666667A84A63408BFD969002904BF97
:1053B00003B0F0BD0846FBF769FB16E09CF82C2013
:1053C000DCF8281051F822200021B4EB127F08BF2E
:1053D0009969C2F30362092A08BFD969002904BF89
:1053E00003B0F0BD0846FBF79FFB03B00014F0BD0F
:1053F0009CF82C20DCF8281051F822200021B4EB76
:10540000127F08BF9969C2F30362092A08BFD969EC
:10541000002904BF03B0F0BD0846FBF788FB03B0CA
:105420000014F0BDD86B03B0BDE8F040FDF7C6B97D
:1054300000216046FFF79AFD03B0F0BD01216046F0
:10544000FFF794FD03B0F0BDDCF81020002A04BF84
:1054500003B0F0BD002103B06046BDE8F040104746
:10546000DCF81020002A04BF03B0F0BD012103B016
:105470006046BDE8F0401047586AFFF706F8C0EBF9
:10548000001025498000A1FB001003B0C008F0BD4A
:10549000586AFFF705F8C0EB0010800085FB00108C
:1054A000811003B0A1EBE070F0BD3046FCF770FB5B
:1054B00031E73046FCF76CFB97E75969002904BFD8
:1054C00003B0F0BD084603B0BDE8F040FBF77BB980
:1054D0003046FCF73CFB1EE73046FCF738FB84E720
:1054E0003046FCF737FB16E73046FCF733FB7CE72A
:1054F0003046FCF750FB0EE73046FCF765FB0AE749
:105500003046FCF761FB70E73046FCF759FB02E7D9
:105510003046FCF755FB68E7CDCCCCCC2DE9F04705
:105520008946416A90F82C000124DDF8208051F86A
:1055300020001E4617464569002D08BF00240FD0E5
:1055400049462846FBF72BF9388049462846FBF7A1
:105550002CF9308049462846FBF72EF9A8F80000C0
:105560002046BDE8F08790F82C00704710B5FCF796
:10557000D7FF18B1BDE81040FDF70EB8BDE81040E8
:10558000FDF704B8DDF800C001770021C0E9082369
:1055900080F82C10C0F828C07047000009484188E6
:1055A00011B14188491E41808188012902D9818831
:1055B000491E81800188012998BF70470188491ED2
:1055C0000180704748070020037F01228B4294BF6F
:1055D000002280F82C1010467047000001494F202F
:1055E0008880704748070020014900208880704764
:1055F00048070020D0F820C090F82C0061F30F037A
:1056000019465CF8200062F31F41FCF7EBBA4368CF
:10561000002B08BF70471847F0B515460246006AD0
:1056200092F82C30012683B050F82370506A2CB2C7
:105630000C2950F823007BD009DC0C291ED2DFE8AE
:1056400001F0211D1D461D373C415D676D724FF015
:10565000090C112976D008DC0D297AD00E297DD0CD
:105660000F2972D0102971D008E014296FD01529A4
:105670006ED0412900F0EC805B2909D0002603B0F0
:105680003046F0BDE9B21046FFF79EFF0646F6E74A
:1056900005EB8500714A40000021C2FB001041115A
:1056A000A1EBE07001B200223846FCF733FAE6E7DE
:1056B00000682146FDF7F9FBE1E700682146FDF7A8
:1056C000F2FBDCE700682146FDF7EBFBD7E715F0BE
:1056D000FF0F07D13846FCF76FFA01460022384623
:1056E000FCF71FFAE8B20128C9D13846FCF75EFA88
:1056F000014600223846FCF70DFAC0E73846FCF7B1
:105700004AFA64F30F0001463846FCF76BFAB6E735
:1057100040682146FDF7C9FBB1E709E04068214632
:10572000FDF7C1FBABE740682146FDF7BAFBA6E7F2
:105730003846FCF730FA64F31F4001463846FCF760
:1057400051FA9CE730E004E008E00CE010E047E0AC
:1057500062E080682146FDF7A8FB90E7806821465B
:10576000FDF7A1FB8BE780682146FDF79AFB86E7F2
:10577000916A002551F82310BCEB117F08BF8569A1
:10578000C1F30361092908BFC569002D3FF477AF54
:105790006A4601A92846FBF78FF9BDF9002021468A
:1057A0002846FBF78EF96AE7916A002551F8231025
:1057B000BCEB117F08BF8569C1F30361092908BFEC
:1057C000C569002D3FF45BAF01AA69462846FBF787
:1057D00073F92246BDF900102846FBF772F94EE72F
:1057E000916A002551F82310BCEB117F08BF856931
:1057F000C1F30361092908BFC569002D3FF43FAF1C
:1058000001AA69462846FBF75FF92246BDF9001058
:105810002846FBF767F932E7916A002551F8231013
:10582000BCEB117F08BF8569C1F30361092908BF7B
:10583000C569002D3FF423AF6A4601A92846FBF74E
:1058400043F9BDF9002021462846FBF74BF916E73E
:1058500021463846FCF7D0F911E70000898888888E
:105860002DE9F0410F46416A90F82C001D46069E36
:1058700051F82000394644692046FAF77EFF2A464F
:1058800039462046FAF77FFF324639462046FAF776
:1058900080FF0120BDE8F0812DE9FF4F83B0234C4C
:1058A0000546234E2048109FA060B6E80E1FA0E8D2
:1058B0000E1F96E80E1080E80E100095DDE9041228
:1058C0002038203E069BFFF75DFEA068FFF7DEFA5A
:1058D00023220021A068FFF79AFE24220121A0685C
:1058E000FFF795FE1348E060B6E80E1FA0E80E1F14
:1058F00096E80E1080E80E100F48FFF7E5F9A06853
:105900000E49CDE9001002970D4B0E4A0A49E06896
:10591000FCF748FA0095DDE90412069BE068FFF702
:1059200031FE07B0BDE8F08FC40400204807002016
:10593000940400203C080020CC050020C14C000845
:10594000A14D0008C94D000810B5184CD4F820012D
:10595000C16911F0200F0ED0808CC1B22046FFF734
:10596000BFF90088012804D0022808BFFFF73CFED9
:1059700001E0FFF733FED4F82001C06910F0800F7A
:105980001CBF0A48FFF74BFAD4F82001C06910F099
:10599000080F08BF10BD0548FFF798F9D4F820019B
:1059A00008210162BDE81040FFF71EBECC050020B3
:1059B000C18840884843000C7047C088704710B5C4
:1059C000038D0022012B3CBF83890B801FD9D0E9B6
:1059D00008C363444FEAE37C436203EB1C434FEA92
:1059E0002343C381B0F81AC0447803FB0CF3D0F80A
:1059F0001CC003EB83034FEA43030CFB04FC93FB43
:105A0000FCF30B808381038DA3F1010318E018D10F
:105A1000438D0B808381B1F90030D0F81CC003FBAB
:105A20000CF3B0F81AC00CEB8C0C4FEA4C0C93FB47
:105A3000FCF390F801C013FB0CF3C3814FF000039B
:105A4000038590F82D30002B04BFC178017002D07F
:105A5000FEF75CFC0246104610BD70B490F833208F
:105A60004FF0010C012A08BFB1F9002031D0028E9D
:105A7000B0F90E301A4412B202864478C58893FBFE
:105A8000F4F42C44C48090F82C40012C21D1B0F9BE
:105A90002E4001250CB3641E24B2C485002B0B8854
:105AA000ACBF9B1AD31A1BB2B8BF4FF0FF3C14FB1C
:105AB00003F4B0F9366094FBF6F414FB0CFC0FFA17
:105AC0008CFC002B10DB80F832500988A1EB0C0114
:105AD0000AB2828070BC10467047B1F9002080F88D
